:020000040800F2
:1000000030100020D50000086D2A000825230008C4
:1000100000000000000000000000000000000000E0
:10002000000000000000000000000000712D00082A
:100030000000000000000000812C0008732D000863
:10004000E7000008E7000008E7000008E7000008F4
:10005000E7000008E7000008E7000008E7000008E4
:1000600000000000E7000008E70000088909000818
:10007000E7000008E7000008E7000008E7000008C4
:10008000E7000008E7000008E700000800000000A3
:10009000E7000008E7000008E7000008E7000008A4
:1000A000E7000008E7000008E700000899340008AE
:1000B000E7000008E7000008000000000000000062
:1000C0000348854600F098FB004800475941000866
:1000D000301000200448804704480047FEE7FEE750
:1000E000FEE7FEE7FEE7FEE7112E0008C10000086C
:1000F00030B50B46014600202022012409E00D46C0
:10010000D5409D4205D31D469540491B2546954047
:1001100040191546521E002DF1DC30BDF0B51FB45C
:100120000646002082B005464024019100901BE065
:10013000019922460F46304600F045F9049A059B86
:10014000801A994110D310461946224600F02BF927
:10015000361A8F410197224601200021009F00F0AE
:1001600022F938184D4100902046641E0028DFDC3B
:10017000019B00982946324607B0F0BDD2B201E09B
:100180000270401C491EFBD270470022F6E710B5F2
:1001900013460A4604461946FFF7F0FF204610BDF5
:1001A000F8B502464A40D40F42004B0052085B08A3
:1001B0009A4202D20246084611464A0023D0C30D95
:1001C0004A00DDB2120EAD1A202D35DA49020126A1
:1001D000490AF6058A19002C00D0524220214F1BF3
:1001E0001146B9402A411018C20D9A4221D0002C64
:1001F00017D0012D08DCDA05801AD20F8019D2073A
:10020000DBB200F0F9F8F8BDDA05801A01234000EE
:100210001B06C01880185A428018CA0F10434900A4
:1002200007E04908C2071143DA05801A801940081F
:10023000801800F0D9F8F8BD61000122511A001BA6
:10024000F7E70122D2075140AAE70122D207504026
:10025000A6E7024670B54A40D30FDB0740002DD019
:100260004A002AD0010E140E000212020919400A97
:10027000520A8418E50104465443000A120A2E0467
:100280005043A4194219200CC543AA18120C012589
:10029000AD03521C521912047F39240400D0521CA1
:1002A000104301D44000491EC2B20C06C0092018F8
:1002B000401C4008802A02D003E0002070BD4008A6
:1002C0004000002900DA0020184370BD70B50246D6
:1002D0004A40D50F40004A00ED0740085208002868
:1002E00014D0002A12D0C40DD30D41020120C00544
:1002F0005202490A520AE41A091812187D3491422E
:1003000001D3641C00E04900002C01DA002070BD1C
:100310000023914201D3891A034340084900002871
:10032000F7D100290AD0914202D10121C90705E085
:10033000914201D2012101E00121C943E005C01829
:10034000401900F051F870BD10B5002296231146F7
:1003500000F052F810BD410040020122400AD205CF
:10036000090E80187F2901DA00207047962903DCE6
:100370009622511AC8407047963988407047C20F7C
:10038000D207400040080BD0C10D0723DB01C9187C
:1003900040020905400A1143C20840071143704753
:1003A00000200146704710B5202A04DB0146203AA0
:1003B0009140002010BD914020239C1A0346E34049
:1003C0001943904010BD10B5202A04DB0846203A9E
:1003D000D040002110BD0B46D340D0402024A21AAB
:1003E00091400843194610BD002904DA401C490019
:1003F00001D140084000704770B40024050C05D1BD
:100400001024000402D1002921D01124050E01D1AD
:1004100000020834050F01D10001241D850F01D110
:100420008000A41C002801DB4000641C002908D0C7
:1004300020252E1B0D46F540A14000D00121294367
:10044000084301061B1B000ADB1D02D5002070BCFF
:100450007047DB05181880180029F8DA401C49009D
:10046000F5D170BC4008400070470000F0B5074669
:100470000846584087B0C00F049048000E46590007
:1004800040084908BC1A884105D2384631461E4604
:1004900017460B4602465800400810434CD0300D1A
:1004A000039040055900400D490D0590401A0290F7
:1004B000402872DA18030121000B09050843019056
:1004C00004980092002805D00199524200208841EA
:1004D00000920190029840210A1A01990098FFF7B2
:1004E00062FF05460C466B4607CB00F097F9C01932
:1004F0007141039A0E0D0023D71756401A467A40D1
:10050000164344D0049A002A2DD0029A012A039A55
:1005100015DC1205C01A914101263605001C7141F7
:10052000D20F059ED2070093019202962A462346D7
:1005300000F094F907B0F0BD38463146FAE71605E9
:10054000224A0F46B218C01AB74101210905001C02
:100550004F4100187F41114618187941E20F1043AE
:100560006D19644113E0E2076D0815436408C20782
:100570001443039A01261205C01A91413605001C46
:100580007141CE07400830434908C01851412A46FE
:10059000234600F056F9CDE7FFE70498012240001A
:1005A000C117121A00238B4104983146C417381A18
:1005B000A141EEE730B40124E407634030BC55E7C5
:1005C00030B40124E407614030BC4FE70000E0FF95
:1005D000F0B51FB488B00B990998002448400999D8
:1005E000C00F490049080991C0070B9900904900C4
:1005F00049080B9109990898A64608431CD00B9905
:100600000A98084318D0099801244000420D480078
:10061000410D099824050003000B204309900B9815
:100620000003000B20430B9050181C494018002277
:1006300001901446104605E0002001460DB0F0BDC3
:10064000032801DA034600E003239C46C11A0AAEE0
:100650000AE05F0008ADED5B4F00F75B7D430027CC
:10066000AA187C41491C5B1E6145F2DD410004ABC8
:100670005A522104120C0A43240C401C0828DFDBC8
:10068000019802900099704601910090059B049A90
:100690000799069800F0E2F8D0E700000DFCFFFF94
:1006A000F0B50C465C4085B0E40FE40703944C00C1
:1006B00000266408590094464908024602962243DF
:1006C00021D062460A431ED06200570D4A000E0335
:1006D0002303550D012402462C492405781B1B0BCE
:1006E000360B401823432643614600901C46501A9F
:1006F000B44103D30098401C009002E09218009887
:100700005B41002803DA0020014605B0F0BD00205F
:10071000012109050746864611E064461D46141B63
:10072000B54106D36546521BB341744607430C439B
:10073000A646CD0740084908284392185B41054664
:100740000D43EAD11046184313D060461946504075
:100750007140084306D06046101AB34106D2012208
:10076000002306E000220123DB0702E00122D2433E
:100770005310009874460105381C6141029C039D8A
:100780000019694100F05DF8BFE70000FD030000BB
:100790004A0009030123090B1B0519430A4B10B535
:1007A000520D9A4202DA0020014610BD064B343346
:1007B0009A4203DC9A1AFFF706FE10BD034BD218CB
:1007C000FFF7F1FD10BD0000FF030000CDFBFFFFB0
:1007D00010B5002904DB0124E40740428C41214686
:1007E000002B04DB1C460123DB075242A341994244
:1007F00000D1904210BD0000064C0125064E05E0D8
:10080000E36807CC2B430C3C98471034B442F7D331
:10081000FFF75AFC3C5200085C52000810B5202A31
:1008200006DBCB170846203A1041C1170B4306E000
:100830000B461341D0402024A21A91400843194688
:1008400010BD10B5002B08DA0024401C614192183D
:100850005B411A4301D14008400010BDF0B51FB400
:1008600082B005460C0003D0084602F065FE02E0A7
:1008700002F062FE20300246009021462846FFF733
:1008800092FD049B059A04460F4618431143084302
:1008900014D0184610431BD0009840210A1A18465D
:1008A0000599FFF790FD05460E46009A05990498B4
:1008B000FFF779FD084305D0012004E020463946C2
:1008C00007B0F0BD0020C11705430E432C4337434A
:1008D00000990E986305401A7905E40A00220C433A
:1008E000FD0A0A3002D500200146E9E7010510198A
:1008F00069410C9C0D9D00196941FFF7A2FFDFE7DC
:1009000070B58C180578401C6B075B0F01D103781C
:10091000401C2A1106D10278401C03E006780E70B4
:10092000401C491C5B1EF9D12B0705D40023521E25
:100930000DD40B70491CFAE70378401CCB1A921CAB
:1009400003E01D780D70491C5B1C521EF9D5A142B5
:10095000D8D3002070BD30B50346002208463124AC
:10096000995C48400021050602D54000604000E047
:100970004000491CC9B2C0B20829F4D3521CD2B2FB
:10098000022AEDD330BD000010B5034800F052F844
:10099000024800F04FF810BD780B0020300B00200B
:1009A00072B6FEE730B5014620314A790023022AAB
:1009B00004D00422C2630B71012030BD02681468A8
:1009C0000E25AC4314600268146864086400146067
:1009D000446C1C22144001221546006CA540456061
:1009E0004A7118460B7130BD70B5002401462031A4
:1009F0004A79022A03D00421C163012418E0026865
:100A000013680E25AB431360026813685B085B0034
:100A10001360436C1C221340012215469D40036C59
:100A20005D604A7100220A71816B002900D08847FD
:100A3000204670BDF0B4016C0D6801680C68466C0E
:100A40001C2304221E401746B7402F420ED06707D2
:100A50000CD50C68A40602D40C6894430C60416C5D
:100A600019408A40016C4A60016B1AE00227B740C6
:100A700002462F402032002F17D0A70715D50C684B
:100A8000A40605D40C680A25AC430C600121517101
:100A9000446C02211C40036CA1405960002111717B
:100AA000C16A002918D0F0BC08470827B7402F4278
:100AB00012D0240710D50C680E25AC430C60446C92
:100AC00001211C400B46A340046C6360C16351715B
:100AD00000211171416BE4E7F0BC704770B5040070
:100AE0003CD01F48256814212818FFF701FB80001F
:100AF00060641C4820640221204620300246417177
:100B000029681948E3680140A068666918432369A9
:100B100033431843A3691843E3691843236A18430E
:100B2000084328600121A0688903884210D00D483D
:100B30008030836A656C1C210D400F26AE40B343A4
:100B40008362656C63680D40816AAB400B438362CE
:100B50000020E06301215171107170BD012070BD52
:100B6000F8FFFDBF000002400F80FFFF70B5044694
:100B700000F0DCF80546601C02D004480078241818
:100B800000F0D4F8401BA042FAD370BD0000002052
:100B9000FCB500230124A7E027462A469F403A409F
:100BA0006FD04D68012D05D0022D03D0112D01D03D
:100BB000122D16D185680326AC465D00AE46AE40C8
:100BC0006546B543AC46CE687546AE4065462E4395
:100BD000866046680D79BE43ED06ED0F9D403543B6
:100BE0004560C6685F000325BD40AE46AE4335464E
:100BF0008E68BE402E43C6604E68022E01D0122E73
:100C000014D1DE08B60036180196366A5D07B44680
:100C1000EE0E0F25B54000966646AE43B4460D690C
:100C2000009EB54066462E43019D2E6206687546BD
:100C3000AE430D79AD07AD0FBD40354305604D683E
:100C4000ED0050D52B4D6E6B26436E639E082A4DEA
:100C5000B6007519AC46AD689E07360F0F27B74032
:100C6000BD4305273F07B84201D100271AE0234FB3
:100C7000B84201D1012715E0214FB84202D1022725
:100C800010E030E01F4FB84201D103270AE01E4FA9
:100C9000B84201D1042705E01C4FB84201D1052715
:100CA00000E00627B7402F436546AF60184D2E6819
:100CB0004F689643FF0300D516432E606E684F6859
:100CC0009643BF0300D516436E60AE684F689643E7
:100CD000FF0200D51643AE60EE684F689643BF0230
:100CE00000D51643EE605B1C0A681546DA4000D05A
:100CF00052E7FCBD0010024000000140000400501B
:100D000000080050000C005000100050001C005063
:100D1000000401400069084000D001207047002A0B
:100D200001D081617047816270470000014880688E
:100D3000704700000000002070B502464032537832
:100D4000202B1CD11378012B19D0012313702424DC
:100D50005470046825689D432560046825681E0357
:100D6000B5432560046825680D4325600068016867
:100D700019430160202050700020107070BD0220C7
:100D800070BD70B5024640325378202B1BD11378CA
:100D9000012B18D0012414702423537003681D689C
:100DA000A5431D6005682B680F263602B343090270
:100DB00019432960006801682143016020205070B8
:100DC0000020107070BD022070BD000070B50400DE
:100DD00006D02546403568780026002802D005E078
:100DE000012070BD2E70204600F000FA24206870AB
:100DF000206801684908490001600F216068090600
:100E000088432168086121688A680120C003824301
:100E10008A60E1680129A16808D021229202114369
:100E200022689160E168022902D005E00143F7E7FA
:100E300001212268C902516021684A680F4B1A4398
:100E40004A602168CA688243CA60616920690843B0
:100E5000A169090208432168C860216AE069084362
:100E600021680860206801680122114301606664FE
:100E7000202068702663AE70002070BD00800002E4
:100E8000FFB5054604464035687881B0202878D102
:100E90002878012875D001202870FFF747FF074602
:100EA000012200901923D103204601F0C9FA00283D
:100EB0003CD1222068701020A87000266664039838
:100EC0006062049860856663618D2F48FF2903D9AD
:100ED000FF22228500903BE0618D218500903DE05E
:100EE0002046029901F098FA16E001F0D1FA0028A4
:100EF0001CD12068406A616A0870606A401C6062A8
:100F0000208D401E81B22185608D401E6085608DE0
:100F1000002801D000290CD0608D0A9900283A469B
:100F20002046E2D101F0F4FA00281CD0012005B0DF
:100F3000F0BD00970022802120460A9B01F080FA34
:100F40000028F3D1608DFF2805D9FF222285009665
:100F500001231B06C4E7608D20850096208D0123A8
:100F6000C2B25B06BCE721682020C86121684A68DC
:100F7000064B1A404A606870AE702E700020D6E7AB
:100F8000FFE70220D3E700000024008000E800FE15
:100F9000FFB5054604464035687881B0202878D1F1
:100FA0002878012875D001202870FFF7BFFE07467A
:100FB000012200901923D103204601F041FA0028B4
:100FC0003CD1212068701020A87000266664039828
:100FD0006062049860856663618D2F48FF2903D99C
:100FE000FF22228500903BE0618D218500903DE04D
:100FF0002046029901F010FA16E001F0AFFA00283D
:101000001CD1606A216800788862606A401C606256
:10101000608D401E6085208D401E80B22085618DD0
:10102000002901D000280CD0608D0A9900283A468A
:101030002046E2D101F06CFA00281CD0012005B056
:10104000F0BD00970022802120460A9B01F0F8F9AC
:101050000028F3D1608DFF2805D9FF222285009654
:1010600001231B06C4E7608D20850096208D012397
:10107000C2B25B06BCE721682020C86121684A68CB
:10108000064B1A404A606870AE702E700020D6E79A
:10109000FFE70220D3E700000020008000E800FE08
:1010A000FFB5054604464035687883B0202872D1E4
:1010B0000C98002814D00D98002811D02878012809
:1010C00069D001202870FFF731FE07460122009009
:1010D0001923D103204601F0B3F9002871D103E0B0
:1010E0000120400260646CE0212068704020A870FC
:1010F000002666640C9860620D98608566630E98A1
:101100000090019704A90EC9204601F055F9002866
:1011100001D02E7055E0608DFF2805D9FF22228571
:1011200001231B06009606E0608D20850096208D29
:101130000123C2B25B062046049901F06DF93A46DC
:1011400020460E9901F00AFA00283AD1606A216817
:1011500000788862606A401C6062608D401E608515
:10116000208D401E80B22085618D00291FD000286F
:101170001DD100970022802120460E9B01F060F9CE
:1011800000281ED1608DFF2806D9FF222285012369
:101190001B06009607E024E0608D20850096208DD8
:1011A0000123C2B25B062046049901F035F9608D37
:1011B0000028C4D13A4620460E9901F0A9F900282A
:1011C00002D0012007B0F0BD20682021C161206855
:1011D0004268054B1A4042606970AE702E70002064
:1011E000F0E70220EEE7000000E800FEF0B587B06F
:1011F000044614216846FEF7C8FF194F26681949AE
:1012000002221223012403251748BE420ED1CE6AC2
:101210001643CE62CE6A164005968A6BC6023243EA
:101220008A6329026E463AC6042112E00F4FBE427D
:1012300013D1CE6A1643CE62CE6A164005968A6BEB
:101240000126B60532438A63032189026E463AC6F7
:10125000062104916946FFF79BFC07B0F0BD000032
:1012600000540040001002400004005000580040AC
:101270000248816802788918816070470000002068
:1012800010B508480024016840221143016020463F
:1012900000F00AF8002801D0012401E000F026F84F
:1012A000204610BD0020024070B504460D4D7D2043
:1012B0002978C000FEF71CFF01460B480068FEF7C6
:1012C00017FF00F0B5FC002809D1042C07D200223A
:1012D0002146401E00F022F800206C6070BD012005
:1012E00070BD0000000000200C0000200448416B8D
:1012F000012211434163816B0204114381637047F2
:1013000000100240002805DBC106C90E01208840FC
:10131000014908607047000000E100E010B502F0EC
:1013200047F910BDF8B5044600780027584D8006EF
:1013300071D5574E403EB06BC00004D4B06BA905C8
:101340000843B063012753480168C90511D40168F7
:10135000821511430160FFF7E9FC009005E0FFF7FB
:10136000E5FC0099401A642837D84A480068C0054F
:10137000F5D532680321090560680A4001409142B1
:1013800008D08103890F032904D13168890301D56D
:101390000120F8BD2A69032109040A4022D008402F
:1013A00090421FD0207880061CD528692A6988437E
:1013B0000121C9040A432A612A698A432A612861F2
:1013C000C0050FD5FFF7B2FC009008E0FFF7AEFCB8
:1013D0000099411A3048814201D90320F8BD28699B
:1013E0008005F3D561688803800F032805D1326832
:1013F0000005824301400A43326028690322616884
:101400001204114008432861002F04D0B16B012061
:1014100000078143B1632078C00705D0E868A16860
:10142000800880000843E8602078800705D5E868D8
:101430000C218843E1680843E8602078400706D51E
:10144000E86803218902884321690843E86020781D
:10145000000706D5E868032109038843616908434A
:10146000E8602088C00506D5E868032109048843A0
:10147000A1690843E8602078000606D5E8680321E2
:1014800089048843E1690843E8600020F8BD000052
:10149000401002400070004088130000F8B50E466E
:1014A000050038D05E480068C007C00FB04214D2B3
:1014B0005B4C20684008400030432060FFF736FC5A
:1014C000074605E0FFF732FCC11B564881427AD837
:1014D0002068C007C00FB042F4D12878524C800772
:1014E00005D5E068F0218843A9680843E0602878C2
:1014F000C00752D06868022806D0032807D02168A8
:1015000001280AD0890504E02168890301E02168E7
:101510008901002903DB0120F8BD4907F9E7E168EB
:10152000890889000143E160FFF700FC074668680D
:1015300002280AD0032814D001281ED029E0FFF782
:10154000F5FBC11B374881423DD8E0680007800F9A
:101550000228F4D121E0FFF7E9FBC11B31488142A9
:1015600031D8E0680007800F0328F4D115E0FFF7B9
:10157000DDFBC11B2B48814225D8E0680007800FA6
:101580000128F4D109E0FFF7D1FBC11B25488142B6
:1015900019D8E0680007800FF5D121480168C90714
:1015A000C90FB14217D901684908490031430160A8
:1015B000FFF7BCFB074608E005E0FFF7B7FBC11BE0
:1015C0001848814201D90320F8BD15480068C007BA
:1015D000C00FB042F1D12878400706D5E068072156
:1015E00009028843E9680843E0602878000707D5C6
:1015F000E0680721C90288432969C9000843E060FF
:1016000000F03AF8E168094A0906090F515CC84040
:101610000749086007480068FFF746FEF8BD00006C
:10162000002002408813000000100240FC4900081E
:101630000C00002004000020044805490068C96827
:10164000044A4905490F515CC84070470C0000200E
:1016500000100240154A0008044805490068C9689E
:10166000044A8904490F515CC84070470C000020AF
:1016700000100240154A000870B51A4AD3681A498A
:101680000C2018408D0004280CD04E00082810D0E3
:101690000C2810D050680004410F0120C003491CE1
:1016A000884070BD1068C00601D5084670BD284648
:1016B00070BD304670BD98020C4C000F205C1B02C0
:1016C0009C0FD368641CDB0301D5314603E012682C
:1016D000D20600D4294601F046FF22460023FEF739
:1016E0001DFD70BD0010024000093D000C4A0008BD
:1016F000FEB505007ED0F74CE7680C20E668074091
:101700000120000406402878C00747D0082F05D0E4
:101710000C2F0AD101200004864206D120688003E4
:101720003CD568680028E5D038E0012069680004ED
:10173000814203D121680143216011E00523012288
:101740001B0492049942216802D111432160F1E700
:10175000814321602168014000912068904320600E
:10176000686800280DD0FFF7E1FA009005E0FFF768
:10177000DDFA0099401A64287ED820688003F6D5E7
:101780000CE0FFF7D3FA009005E0FFF7CFFA0099DD
:10179000401A6428F0D820688003F6D4287880079F
:1017A0005DD5E868810604D5226820210A432260BD
:1017B00088430923042F0DD00C2F01D1002E09D00E
:1017C00000283CD02168994301432160FFF7AEFA1D
:1017D000064628E02168490701D500288AD06168BB
:1017E0001F22120291432A6912021143616021688B
:1017F000994300E091E101432160FFF73DFFE1687B
:1018000009060A0FB449895CC840B4490860B44865
:101810000068FFF749FD002874D120E0FFF786FA41
:10182000801B0228A8D820684007F7D560681F21D0
:101830000902884329690902084360600FE02068B3
:10184000400840002060FFF771FA064604E0FFF709
:101850006DFA801B02288FD820684007F7D42878BB
:10186000C00661D5002F0DD0A86900284BD0206894
:10187000FF210131084300E0C6E02060FFF756FA7F
:1018800006462DE02068800502D5A8690028A5D06D
:101890006068072149038843296A084360606068DB
:1018A000297F0002000A090608436060286A410B8C
:1018B0000120C003491C8840E16809060A0F8649D7
:1018C000895CC8408549086085480068FFF7ECFCE2
:1018D000002817D128E0FFF729FA801B0228A1D899
:1018E00020688005F7D56068072149038843296A85
:1018F000084360606068297F0002000A0906084307
:10190000606011E0E1E02168FF2001308143216047
:10191000FFF70CFA064604E0FFF708FA801B0228DE
:1019200072D820688005F7D428786E4E000724D539
:1019300068690028306910D0012108433061FFF741
:10194000F5F9009005E0FFF7F1F90099401A022837
:101950005AD830698007F6D50FE040084000306162
:10196000FFF7E4F9009005E0FFF7E0F90099401A6D
:10197000022849D830698007F6D42878400765D511
:1019800000200290A06BC00006D4A06B01210907C3
:101990000843A0630120029053480168C90511D48F
:1019A0000168821511430160FFF7C0F9009005E05E
:1019B000FFF7BCF90099401A642825D84A48006806
:1019C000C005F5D5FF20AA680130824203D13169F4
:1019D0000143316111E001218902002A07D005236A
:1019E0001B029A4203D132690A433261EFE732693E
:1019F00082433261306988433061A86800280FD083
:101A0000FFF794F9009007E05EE0FFF78FF9009987
:101A1000411A3648814257D830698005F5D50DE026
:101A2000FFF784F9009006E0FFF780F90099411A6A
:101A30002E48814248D830698005F5D402980028A4
:101A400004D0A06B012109078843A063686A0028BD
:101A500065D00C2F4CD0012636060228206805D010
:101A6000B0432060FFF762F905462FE0B0432060E5
:101A7000FFF75CF9074604E0FFF758F9C01B02289E
:101A800022D820688001F7D4E96AA86AE26808438E
:101A9000296BFD231B049A4311430843E06020682F
:101AA00030432060FFF742F9054604E0FFF73EF9B6
:101AB000401B022808D820688001F7D52FE0FFF7E7
:101AC00035F9401B022801D90320FEBD20688001A2
:101AD000F5D424E000100240FC4900080C0000206E
:101AE00004000020401002400070004088130000F5
:101AF0000128EAD0E06801210904AA6A0140914264
:101B00000BD10F218904EA6A0140914205D10321DA
:101B100089050840296B884201D00120FEBD0020C4
:101B2000FEBDF8B504000ED0FF27606A053700251A
:101B300000280AD02561656126464036A562707C82
:101B4000002807D00AE00120F8BD6068B842F3D051
:101B5000E561F1E73574204600F03EF8022171742A
:101B60002068026840239A4302602123A2686068CB
:101B70009B021A4038401043E3688A02134018431E
:101B800023690B40217D1843C907C90F0843A16988
:101B9000931019400843E169382319400843216A2A
:101BA000802319400843A16A930019400843216823
:101BB0000860A0690421000C0840616A10231940E4
:101BC0000843216848602068C1699143C161656527
:101BD000012070740020F8BD10B586B004461421B1
:101BE0006846FEF7D2FA10492068884219D10F489A
:101BF000416B821411434163C16A01221143C162E6
:101C0000C06A002110400590F02000900220019051
:101C10000320039002910491052069460007FEF716
:101C2000B7FF06B010BD00000030014000100240B8
:101C3000094910B5401E884201D9012010BD074C4A
:101C400060610321081F01F0B3FC0020A0610720A0
:101C50002061002010BD0000FFFFFF0000E000E059
:101C6000F0B502462032137E012B21D001251576D6
:101C70000223537606687468B3687027BC430F6804
:101C8000274377600068AC07A04208D0094CA04207
:101C900005D0094CA04202D0084CA04204D18024B7
:101CA0004968A34319438160557600201076F0BD42
:101CB0000220F0BD00040040000801400014014073
:101CC00070B5050005D02C462034607E002802D077
:101CD00006E0012070BD00202076284600F010F8B4
:101CE00002206076291D286801F094F80120A07771
:101CF000A076E076207760776076002070BD0000E7
:101D00000122016892070748914202D1816B0122AA
:101D100004E0054A914203D1816B022211438163A1
:101D2000704700000010024000040040F8B505466E
:101D300004462035287E012817D001262E76022061
:101D40006876226890687727FF23B8431B02984380
:101D500090600A68502A31D00EDC202A4BD006DC75
:101D6000002A48D0102A3AD145E00220F8BD302A96
:101D700041D0402A33D136E0602A27D0702A12D0D1
:101D800001200003121A2AD0824228D1CB684A6867
:101D90008968206801F072F8206881680122920346
:101DA000114381601BE0CB684A688968206801F0B4
:101DB00065F8216888683843886010E0CA68496817
:101DC000206801F06EF85021206806E0CA68496872
:101DD000206801F077F86021206801F05AF86E76EB
:101DE00000202876F8BDCA684968206801F059F8D3
:101DF00040212068F1E711462068EEE77047704700
:101E000070470000F8B502680446D069116896680A
:101E1000814B05461D402023002D6CD0F7077F4DD8
:101E2000FF0FBC460D402F4379D02546C7078035AC
:101E3000002F06D0CF0504D5012717622A683A4340
:101E40002A60820708D5F20706D0276802223A6284
:101E50002A6804273A432A60420708D5F20706D0C9
:101E60002668042232622A68022632432A60020768
:101E70000AD50A461A406646324305D0266808222B
:101E800032622E6816432E60020508D54A0106D537
:101E900001222668D20232622A681A432A602A681E
:101EA000002A30D0800606D5880604D5616E002948
:101EB00001D020468847286821688968490602D4ED
:101EC0002821084225D0204601F0B0F8206881681A
:101ED000490619D5826840218A438260206F002814
:101EE00012D04F498163206FFEF77EFD00280AD093
:101EF000206F816B06E0850611D58D060FD5616ECA
:101F000077E020468847F8BD2046FFF779FFF8BD07
:101F100005E02046FFF774FF00202860F7E7256EF4
:101F2000012D56D1C50654D5CD0652D510261662C0
:101F30002068816825464906403500292ADA226F43
:101F4000116849680904090CE1D02F8B8F42DED952
:101F5000698311680968890617D4016832019143C1
:101F600001602068816849084900816020688168B3
:101F7000402291438160E367002020662068016869
:101F8000B1430160206FFEF70DFD288B698B401A6D
:101F900081B21AE0298B6A8B891A6A8B89B2002A6E
:101FA000B5D00029B3D00268FF252135AA430260CD
:101FB00020688268520852008260E3670020206631
:101FC000606620680268B24302602046FFF716FF91
:101FD0009DE7C50208D5750206D5012000051062EF
:101FE0002046FFF70CFF92E7050605D50D0603D541
:101FF000A16E002985D18AE7400688D5480686D596
:10200000116820464024A143116083670021816646
:1020100000F087F97BE700000F08000020010004B2
:102020001930000810B5040003D0A06F002802D0BA
:1020300007E0012010BD002174200155204600F06A
:1020400027F82420A067206801684908490001603A
:10205000204601F07BF80128ECD0606A002802D00D
:10206000204600F042FF206841680922D2029143D5
:102070004160206881682A2291438160206801685C
:10208000012211430160204600F094FF10BD0000C2
:10209000F0B587B0054614216846FEF776F8464F3E
:1020A0002E6846480122022303210024BE421ED18D
:1020B000456B960335434563C56A1543C562C06ADF
:1020C00003911040059048026D4619C50420049004
:1020D000052069460007FEF75BFD002211461B2024
:1020E000FFF71CF91B20FFF70DF907B0F0BD344FC7
:1020F000BE4247D1866B01277F043E438663C66A92
:102100001643C662C06A0426C007C00F059003913B
:102110000C2004966F4619C7052069460007FEF794
:1021200037FD294F2748BC60FC6041C7FC603C611B
:1021300080207C61B8608001B8612348083FFEF7C9
:10214000CDFC002801D0FEF72BFC2F67BD621D4897
:102150001D4F1438483741C710207C603860FC6040
:102160003C6180207C61B8608001B86138460838E5
:10217000083FFEF7B3FC002801D0FEF711FCEF6624
:10218000BD62B2E7114DAE42AFD1856B0126F604B8
:1021900035438563C56A1543C562C06A6D46C0078D
:1021A000C00F05901AC506200490039105206946CA
:1021B0000007FEF7EDFC98E70038014000100240F0
:1021C0000044004058000240300B0020004C00400A
:1021D00030B5C36F202B27D100290BD0002A09D09E
:1021E000012483682403A34206D10369002B03D191
:1021F000CB0701D0012030BD034660331C7D012C8C
:1022000012D001241C7500230366084C0368A34206
:1022100007D05C68240204D51C680125AD062C4358
:102220001C6001F09DF830BD022030BD0048004028
:1022300010B5012204490548FFF7CAFF024800789B
:1022400002F0B4FA10BD000010080020A40900201C
:10225000FFB50446806F83B017460D4620285ED137
:10226000002D0AD0002F08D0A168C001814207D1FB
:102270002069002804D1E80702D0012007B0F0BD92
:10228000204660300090007D012848D00098012150
:1022900001750020802108512120A067FEF746FD2E
:1022A000264640360190378277820120A1680003DC
:1022B000814202D12069002805D02F4600250099CF
:1022C0000020087511E00027F9E700228021204650
:1022D00001F092F8002815D1002F15D02168387828
:1022E00088627F1C708A401E7082708A019B002861
:1022F00006980090E9D100224021204601F07CF8A8
:10230000002808D00320B9E728882168C005C00D3F
:102310008862AD1CE6E72020A0670020AEE702201F
:10232000ACE77047FEE701688A69D243920701D49F
:1023300000228A6200688169C943C90703D08169A4
:102340000122114381617047F7B5044600680E46CB
:102350008069C043C0062BD420272546403520681D
:102360008069C043800612D5701CF8D0FEF7DEFCF1
:102370000299401AB04201D8002EF0D1606C384367
:1023800060646F700020A87028700120FEBD216875
:102390001020C8612068C7612046FFF7C4FF20688D
:1023A0004168044A11404160606C04210843E7E73A
:1023B0000020FEBD00E800FEF8B5044616461548AC
:1023C0001D46DAB2C3020090079F204600F024F8B1
:1023D0003A462046069900F0C1F8002818D1284650
:1023E000F5B2012809D02168300A88623A462046B1
:1023F000069900F0B3F800280AD12068856200979A
:10240000002280212046069B00F01AF8002800D008
:102410000120F8BD00200080F0B50668059C7568B5
:10242000064F600D384385438805800D110408432D
:102430001843204305437560F0BD0000FF63FF03B0
:10244000F8B51D4617460E46044609E0681C07D03D
:10245000FEF76CFC0699401AA8420BD8002D09D053
:1024600020688169304688430FD00020B842EDD003
:102470000020F8BD616C202001436164403460702D
:102480000020A07020700120F8BD0120EEE70000C0
:10249000F7B50027202605460446403528E02046AB
:1024A000029A0199FFF750FF002801D00120FEBDDC
:1024B00020688069C043800611D420688169C943BF
:1024C000490702D4218D002917D1C66120684168CF
:1024D0000E4A1140416067646E70AF7013E0FEF702
:1024E00025FC0299411A0198814208D8002806D09B
:1024F00020688069C0434007D1D40020FEBD606CD5
:10250000304360646E702F70D0E7000000E800FE7A
:1025100070B516460D4604460FE032462946204661
:10252000FFF712FF002801D0012070BDFEF7FEFB6F
:10253000801BA84208D8002D06D020688069C043BF
:102540008006EAD4002070BD616C202001436164E4
:10255000403460700020A0702070E5E770B516462A
:102560000D46044611E0324629462046FFF7ECFEB0
:10257000002801D0012070BD681C06D0FEF7D6FBF4
:10258000801BA84208D8002D06D020688069C0436F
:102590008007E8D4002070BD616C20200143616495
:1025A000403460700020A0702070E3E770B50C46E6
:1025B0000546FEF7AFFB012801D0002070BD214683
:1025C0002846FEF7A7FB70BD10B5064C0122072177
:1025D0002046FEF7A4FB002201212046FEF79FFBC8
:1025E00010BD00000004005070B50F4E01220721FD
:1025F0003046FEF794FB0024FF259135002204218C
:102600003046FEF78CFB2846FEF7B0FA0122042183
:102610003046FEF784FB2846FEF7A8FA641CE4B2B5
:10262000082CEBD370BD00000004005070B50F4EB5
:10263000012207213046FEF772FB00247D25ED00C4
:10264000002204213046FEF76AFB2846FEF78EFA88
:10265000012204213046FEF762FB2846FEF786FA87
:10266000641CE4B2042CEBD370BD000000040050E5
:1026700070B50F4E012207213046FEF750FB0024B3
:10268000FF259135002202213046FEF748FB2846FF
:10269000FEF76CFA012202213046FEF740FB284685
:1026A000FEF764FA641CE4B2082CEBD370BD0000A2
:1026B0000004005070B50F4E012207213046FEF78E
:1026C0002EFB00247D25ED00002202213046FEF77E
:1026D00026FB2846FEF74AFA012202213046FEF781
:1026E0001EFB2846FEF742FA641CE4B2042CEBD32E
:1026F00070BD00000004005008B50848016B0122BD
:1027000011430163006B10400022009011460B2022
:10271000FEF704FE0B20FEF7F5FD08BD0010024099
:10272000F0B587B014216846FDF72FFD3148C26A25
:1027300004210A43C262C26A0A400592C26A802129
:102740000A43C262C26A0A400592C16A012529434E
:10275000C162C16A29400591C26A02210A43C2626C
:10276000C06A254E08400C030590002221463046E1
:10277000FEF7D5FA214F012207213846FEF7CFFA9E
:102780000094002401950294694630460394FEF7B4
:10279000FFF907200090029469460195039438469A
:1027A000FEF7F6F90F2000030090019469460294A9
:1027B0003846FEF7EDF92802052636070090019409
:1027C000694602943046FEF7E3F91320C002032560
:1027D00000906946019502943046FEF7D9F9F82039
:1027E00000906946019502943846FEF7D1F907B08A
:1027F000F0BD00000010024000080050000400502E
:1028000010B51348114901601249416000218160EF
:102810000161416181610122C161C2600162FEF713
:10282000D5FA002801D0FEF7BBF800210848FEF7D2
:1028300083FA002801D0FEF7B3F800210448FEF720
:10284000A0FA002801D0FEF7ABF810BD00540040FC
:1028500034080020280C200010B5134811490160ED
:102860001249416000218160016141618161012261
:10287000C161C2600162FEF7A9FA002801D0FEF72B
:102880008FF800210848FEF757FA002801D0FEF71C
:1028900087F800210448FEF774FA002801D0FEF7FB
:1028A0007FF810BD0058004080080020826650006C
:1028B00010B50E480C490160FF210531416000212F
:1028C0008160C16001614161C16101220162520206
:1028D0004162826181620721C162FFF722F900280B
:1028E00001D0FEF75DF810BD00300140CC0800209B
:1028F00010B586B00024009401211548019402947B
:10290000039404948907059412C0046084601149FB
:10291000C46041600838FFF7D3F9002801D0FEF702
:102920003FF801200003009069460948FFF7FEF9CF
:10293000002801D0FEF734F8049404A90448059453
:10294000FFF78EF9002801D0FEF72AF806B010BD77
:1029500024090020FFFF000010B586B00024009479
:10296000154916480194029403940494059412C0E6
:10297000046084601249C46041600838FFF7A0F920
:10298000002801D0FEF70CF80120000300906946F2
:102990000A48FFF7CBF9002801D0FEF701F80494AC
:1029A00004A906480594FFF75BF9002801D0FDF75C
:1029B000F7FF06B010BD00000004004064090020CD
:1029C000FFFF000010B50C480A490160E1214902EF
:1029D000416000218160C16001618161C1610C229F
:1029E000016242614162FFF71DFB002801D0FDF743
:1029F000D7FF10BD00380140A409002010B50C48D5
:102A00000A490160E1214902416000218160C16001
:102A100001618161C1610C22016242614162FFF783
:102A200001FB002801D0FDF7BBFF10BD00440040B2
:102A3000280A002010B50C480A490160E12149022A
:102A4000416000218160C16001618161C1610C222E
:102A5000016242614162FFF7E5FA002801D0FDF70B
:102A60009FFF10BD004C0040AC0A0020FEE710B5EF
:102A7000002000F01DF810BDFFB581B017460C46D0
:102A8000002610E02146019800F086F8019D06E03E
:102A90000A98805D761C00F019FD6D1CEDB2BD42F8
:102AA000F6D3641CE4B204988442EBD305B0F0BDC5
:102AB00070B5064600242046B030C0B200F0F4FCE9
:102AC000002000F0F1FC102000F0EEFC0025304664
:102AD00000F0FCFC6D1CEDB2802DF8D3641CE4B258
:102AE000082CE8D370BD10B56420FEF73FF8AE2087
:102AF00000F0DAFC202000F0D7FC102000F0D4FC1D
:102B0000B02000F0D1FCC82000F0CEFC002000F086
:102B1000CBFC102000F0C8FC402000F0C5FC812058
:102B200000F0C2FCFF2000F0BFFCA12000F0BCFCC4
:102B3000A62000F0B9FCA82000F0B6FC3F2000F071
:102B4000B3FCA42000F0B0FCD32000F0ADFC0020CA
:102B500000F0AAFCD52000F0A7FCF02000F0A4FCB7
:102B6000D92000F0A1FC222000F09EFCDA2000F029
:102B70009BFC122000F098FCDB2000F095FC20204C
:102B800000F092FC8D2000F08FFC142000F08CFCF3
:102B9000AF2000F089FC10BD10B50446B031C8B2BA
:102BA00000F082FC2009103000F07EFC2007000FAE
:102BB0000121084300F078FC10BD0000FFB500259E
:102BC00081B00446012B1FD0022B21D14FE02038C9
:102BD000C7B27E2C04D902980024401CC0B20290D7
:102BE00020460299FFF7D8FF0620474322480026D7
:102BF0003F18B85D00F06AFC761CF6B2062EF8D3DA
:102C0000A41D6D1CE4B2EDB20398405D0028DED136
:102C100005B0F0BD2038C7B2782C04D90298002442
:102C2000401CC0B2029020460299FFF7B5FF002673
:102C30003F011248B919405C00F048FC761CF6B21E
:102C4000082EF6D30298401CC1B22046FFF7A4FF1D
:102C500000260A48B9190818007A00F037FC761CDB
:102C6000F6B2082EF5D308346D1CE4B2EDB2039829
:102C7000405D0028CED1CBE71D4A0008454C000836
:102C800070470000F8B50E4615460446FF21FDF7D3
:102C900062FEA178884206D1FF21E01CFDF75BFEB1
:102CA0006179884201D00120F8BD60782178000266
:102CB000084340BAFDF748FB0D4F3946FDF706FBC8
:102CC0000C49FDF7C6FA0C49FDF76AFA3060207925
:102CD000E1780002084340BAFDF736FB3946FDF7BC
:102CE000F5FA0649FDF7B5FA28600020F8BD0000A6
:102CF00000FF7F4700002F43000034C20000C8429D
:102D000010B5024800F022F810BD0000202200009B
:102D100038B504460720400300F018F80448009036
:102D20000623224689210348FEF7AAF838BD000091
:102D3000FFFF00003408002010B5034800F006F83B
:102D40001420FDF713FF10BDA23000001CB5020ACD
:102D500069460A71487104480090022301AA88213B
:102D60000248FEF715F91CBDFFFF000034080020E3
:102D7000704710B5FEF77CFA10BD000010B59AB090
:102D800034216846FDF701FA142115A8FDF7FDF975
:102D900020210DA8FDF7F9F91C4801680322D20291
:102DA0009143C214891801600124500100940190DC
:102DB0000A90C0000B90C00002210C900991684657
:102DC000FEF796FC002801D072B6FEE70F201590A2
:102DD000032016900020179018901990012115A833
:102DE000FEF75CFB002801D072B6FEE70B200D90C9
:102DF00004201090800212900F940DA8FEF792FA12
:102E0000002801D072B6FEE71AB010BD0070004075
:102E100070470000F0B502680124A407144D154E58
:102E2000154FA04205D0A84203D0B04201D0B8420D
:102E300004D11346702293434A681A43A04205D036
:102E4000A84203D0B04201D0B84204D103231B02F0
:102E50009A43CB681A4380239A430B691A43026052
:102E60008A68C2620968816201214161F0BD000087
:102E700000040040000801400014014030B584689F
:102E8000FF252D021B021343AC430B4323438360F6
:102E900030BD826870239A430A4307210A43826047
:102EA000704730B5036A046A640864000462846988
:102EB000F025AC43120122430A24A3430B43826151
:102EC000036230BD30B5036A1024A34303628469F2
:102ED000036A0F252D031203AC432243A024A3430E
:102EE000090119438261016230BD10B5818CC907A7
:102EF00007D001684A6801235B049A43836A1A4336
:102F00004A60818C890707D501684A6801231B0440
:102F10009A43C36A1A434A60818C490707D50168FE
:102F20004A6801239B049A43036B1A434A60818CCD
:102F3000090707D501684A680123DB039A43436BFD
:102F40001A434A60818CC90607D50268916801233B
:102F50001B039943836B19439160818C890607D5C4
:102F600001688A6801235B039A43C36B1A438A6032
:102F7000818C490612D503685A6801210905046C41
:102F80008A4322435A60026C8A4207D10268516820
:102F900003235B059943436C19435160818C0906F7
:102FA00007D501684A680123DB04806C9A43024319
:102FB0004A6010BDF8B50446002680300660FDF773
:102FC000B5FE054620680068124F000709D50121AB
:102FD0002B46002249052046009700F00DFA0028F4
:102FE0000DD12068006840070BD501212B46002237
:102FF00089052046009700F0FFF9002801D0032042
:10300000F8BD2020A067E0672666603426750020A2
:10301000F8BD0000FFFFFF0110B5806A00220146E5
:1030200040314A834A82FEF7EBFE10BD01680A6810
:10303000FF2321339A430A6001688A6852085200CC
:103040008A60016E012904D101680A6810239A433D
:103050000A602021C167002101664166704770B592
:1030600004464030828BE36F2168222B04D08869AC
:1030700008221043886170BD496A636D1140198050
:10308000616D891C6165418B491E4183418B00291B
:10309000F1D121680A68FF2321339A430A6021682D
:1030A0008A68520852008A602021E167002565661F
:1030B000216E012904D02046FFF7BAF8256670BDBD
:1030C00021680A6810239A430A60018B2046FEF7A4
:1030D00095FEF3E770B504464030828BE36F2168BC
:1030E000222B04D0886908221043886170BD496A88
:1030F0001140626D1170616D491C6165418B491E03
:103100004183418B0029F1D121680A68FF232133D3
:103110009A430A6021688A68520852008A60202116
:10312000E16700256566216E012904D02046FFF77E
:103130007FF8256670BD21680A6810239A430A60EB
:10314000018B2046FEF75AFEF3E70000F8B504466F
:10315000016880682269E66910436269002532438C
:103160001043754B0A68754E324002430A6020686E
:103170004168032212039143E268114341602168D0
:10318000A069994201D0226A10438A680B26360250
:10319000B24302438A606A4922686A488A420CD173
:1031A000C0688007800F06D001283FD002283BD09E
:1031B000032827D124E0012725E063498A420AD168
:1031C000C0680C2108402DD004282FD008282BD00F
:1031D0000C2817D114E05D498A4223D05C498A4209
:1031E00020D09A420ED1C16803208002014019D03C
:1031F00001208002091A19D0091A15D0814201D183
:10320000082700E010274F495248403986009A426B
:1032100032D1002F0CD0022F0DD0042F10D0082F48
:103220007FD126E00027EEE70227ECE70427EAE754
:10323000FEF702FA06E00968C90605D4304603E045
:10324000FEF71AFA002872D06268510051188142C4
:1032500067D81103814264D3010E0602500800238F
:1032600030185941FCF75AFF03210902411A3A4A22
:1032700055E00120C003E7E70122E369D20393424E
:103280002BD13B0000F087F90906090C4D114D4D7B
:103290004D274D00FEF7D0F909E0FEF7DDF906E015
:1032A0000968C90605D4304603E0FEF7E5F90028B1
:1032B0003DD0616840004A088018FCF719FF80B2D1
:1032C00002462649103A8A422BD8491C0140000781
:1032D000400F084329E01046EBE73B0000F05BF9A4
:1032E0000906090C2112212121232100FEF7A4F94E
:1032F0000AE0FEF7B1F907E00968C90606D43046CE
:1033000004E00EE0FEF7B8F9002810D061684A0822
:103310001018FCF7EDFE80B20146104A10399142B8
:1033200003D9012503E01046F0E72168C8600020BA
:103330006066A0662846F8BD00480040F369FFEFCC
:10334000003801404010024000440040004C004062
:103350000050004000093D00FFFC0F00EFFF00009F
:1033600070B54165014640310A834A8300224266B6
:10337000012483682403FF25A34204D10369002BA1
:1033800013D11A4B0AE07F26002B09D001252D0707
:10339000AB420CD10369002B05D03F238B8307E0A0
:1033A0000369002B01D08E8302E08D8300E08A83C5
:1033B00080210A502221C16701688B6801252B43B7
:1033C0008B608168A14202D1016900290BD00849B4
:1033D000416674210A5400680168FF2221321143BA
:1033E0000160002070BD0349F2E70000FF0100000A
:1033F000D53000085F300008FFB581B005460F46A4
:10340000044660350A9E39E0701C37D0FDF78EFC0B
:103410000499401AB04222D8002E20D020680168BA
:1034200049072BD5C069C043000527D40120216876
:10343000C002086220680168FF22A1329143016046
:10344000206881684908490081602020A067E06702
:103450008034206000202875032005B0F0BD20686E
:103460000168FF22A1329143016020688168490808
:10347000490081602020A067E067EBE72068C16910
:103480003846884305D0002103988142BCD00020F3
:10349000E3E70121F8E7000010B50248FEF7B2FCAF
:1034A00010BD0000A409002001B584B001216422F0
:1034B00004A80B4602920191009000227821024854
:1034C000FDF7EEFD05B000BD8008002001B584B019
:1034D0000121642204A80B4602920191009040222F
:1034E00078210248FDF7DCFD05B000BD8008002012
:1034F0000FB410B503A9044B044A029800F044F934
:1035000010BC08BC04B018471D410008300800205A
:103510000FB410B504A9074B02AA039800F034F9C0
:10352000044602A9002000F0CBFC204610BC08BCD9
:1035300004B01847C13E00082021020C01D0102120
:103540001046020A01D010460839020901D010467F
:10355000091F820801D01046891E420801D0881E2A
:103560007047081A7047F8B5040C8BB2264682B231
:103570005E430D0C1046370C584336048019002169
:10358000794116466E43370C360480197941264638
:103590006E438919F8BD30B47446641E2578641CE6
:1035A000AB4200D21D46635D5B00E31830BC184798
:1035B0008307FF22DB0E9A408907090E99400028F5
:1035C00008DB830809489B001B18186890430843D0
:1035D000186070470007000F0838830804489B00F4
:1035E0001B18D86990430843D861704700E400E095
:1035F00000ED00E002E008C8121F08C1002AFAD15D
:1036000070477047002001E001C1121F002AFBD162
:1036100070470000F0B51FB486B00998089A030DF2
:103620000021024314D05148514A18185043051440
:103630001198012810981AD0281A401C00264D4FC6
:103640004D49009601910490002812DA444211E09D
:103650001198012449A3012801D11098C14306986B
:10366000119A84600360C26041600BB0F0BD4042BB
:10367000E4E70446210500203F4A001C5141039124
:10368000029012E0E00707D032463B4601990098CD
:10369000FCF79EFF0191009032463B4610461946CA
:1036A000FCF796FF06460F466410002CEAD10498FA
:1036B000039B0028029A0999089806DAFCF788FF0C
:1036C000019B009AFCF784FF05E0FCF7E9FF019BF2
:1036D000009AFCF7E5FF04460E460022284BFDF752
:1036E00077F803D80020C043014607E00022254BAD
:1036F00020463146FCF7BAFEFDF74AF8102409E0EF
:10370000002C0ADB0A220023FCF708FD079B30325D
:103710001A55641E02460A43F2D11122641C079B0B
:10372000121B1C19119B012B03D0012308430ED13E
:103730000AE0084304D0112010900020119077E790
:103740001098151A6D1E0BE01098824202DD0023BE
:103750006D1C03E0824201DA00236D1E002BEED0C7
:10376000069811998260C16030C07EE701FCFFFFBE
:10377000104D0000000014400000F03F3000000039
:103780000000F0430000E03FFFB597B0064600257B
:1037900018E2252877D100242746FD49049400E04B
:1037A0000443761C32780120203A90400842F7D139
:1037B00030782A280ED00222307801463039092983
:1037C00016D804990A235943303940181443761CFB
:1037D0000490F1E7189802C804911890002904DABF
:1037E0000120400304434842049002200443761C15
:1037F00030782E2814D1042004437078761C2A28AF
:1038000009D11898761C80C8189009E00A214F4306
:10381000303FC719761C3078014630390929F5D96F
:1038200030786C2810D006DC4C281AD068280ED0CE
:103830006A2817D104E0742813D07A2812D110E036
:103840000120400504430CE00121090501E00321AA
:1038500009050C437178814203D101200005241829
:10386000761C761C3078119066280BD013DC582813
:103870007DD009DC00287BD04528F6D04628F4D03E
:1038800047281AD1A5E118E0632835D0642870D004
:10389000652812D19DE170286CD008DC6728F1D032
:1038A00069287BD06E280DD06F2806D1BAE0732826
:1038B0002ED0752871D0782859D01A9A1999904726
:1038C0006D1C7EE16002400F022809D003280DD054
:1038D0000428189801680DD00D60001D189070E143
:1038E0001898EA1701680D604A60F6E718980168B1
:1038F0000D80F2E70D70F0E718986A4601781172B2
:10390000001D18900020507202A80090012005E0D0
:10391000189802C8189000200091C04361070DD587
:10392000002101E00199491C0191B94212DA81425A
:10393000F8DB009A515C0029F4D10BE0002101E092
:103940000199491C01918142FADB019A0099895C35
:103950000029F5D1019904981A9B471A2146384647
:10396000199A00F097FA0199401945180BE04FE0B9
:103970002CE113E04EE0009800990078491C00917A
:103980001A9A199990470198401E0190401CF2D153
:10399000214638461A9B199A10E137E00A20002187
:1039A000009001916002410F022907D0189A01CAC4
:1039B0001892C2179446032908D00AE01898C01D2F
:1039C000C108C90005C91891944607E000B2C217A2
:1039D0009446042902D140B2C1178C4600226146A8
:1039E000944506DA0A460021404291418C462D2139
:1039F00002E0210504D52B216A461173012103E061
:103A0000E10701D02021F7E7029155E00A200AE002
:103A1000102008E0102000900021042004430191B0
:103A2000082703E008200021019100906002410F67
:103A3000022907D0189A01CA189200229446032935
:103A400008D008E01898C01DC108C90005C9189120
:103A5000944603E080B2042900D1C0B20021029153
:103A6000210729D51199702906D0009A1021019BB0
:103A70004A401A4305D00EE040216A4611730121E5
:103A800008E06146014306D030216A46117311995E
:103A9000517302210291009A0821019B4A401A4366
:103AA0000AD16146014301D1610705D530216A463B
:103AB000117301217F1E02911199582904D035A15B
:103AC0000E910DA90D910DE037A1F9E76146019B1B
:103AD000009AFCF723FB0E9B8C469B5C0D9A521EB2
:103AE0000D92137061460143F0D10D9805A9081A93
:103AF00020300190600703D501200004844300E0DA
:103B000001270198874201DD381A00E00020019961
:103B100000904118029809180498401A0490E00394
:103B200006D421461A9B199A049800F0B3F9451956
:103B3000002706E003A81A9AC05D199990476D1CEA
:103B40007F1C02988742F5DBE0030CD521461A9BC7
:103B5000199A049800F09EF9451904E01A9A302049
:103B6000199990476D1C0099481E00900029F5DCBA
:103B700008E00D980D990078491C0D911A9A199931
:103B800090476D1C0199481E01900029F1DC63E10A
:103B90000928010030313233343536373839616223
:103BA00063646566000000003031323334353637E7
:103BB00038394142434445460000000000F05AF9BC
:103BC0004519761C3078002800D0E2E528461BB065
:103BD000F0BD600700D406271898C01DC108C900B1
:103BE00048680A680831C30FDB071891190001D033
:103BF0009CA108E0210501D59BA104E0E10701D0CB
:103C00009AA100E09AA1430011985B0810916528E1
:103C10000CD006DC452809D046281DD0472841D1C4
:103C200041E0662818D067283CD13CE00021112FE4
:103C300001DB112000E0781C0191009008A911A877
:103C4000FFF7E8FC139905910021119A15927F1C4A
:103C500012980197009150E00120C00703900120C5
:103C6000019008A9009711A8FFF7D4FC139A1499A2
:103C700005920022119B009212981593059A0192C9
:103C8000002901D0104602E0791C40180190381A32
:103C900001D5019804E04042401E0090781C01903C
:103CA000C01B029043E0012F00DA01270021112FF1
:103CB00001DD112000E038460191009008A911A80B
:103CC000FFF7A8FC13990591119A002112981592FB
:103CD0000091019721070CD40599B94201DB0199A4
:103CE00000E00191012904DD159A491E515C30293B
:103CF00006D0B84201DA011D05DA0121029115E072
:103D00000199491EEDE7002805DC00994118009152
:103D10000199091A03E0019A411C914200DD0191C9
:103D20000099401A401C02900120C0070390200710
:103D300006D402990198814202DB0020C043029020
:103D400000206946C87707AF012103980337C907E8
:103D5000884224D0022011902B2012900398002832
:103D60000CDA404203902D20129007E00A210398BC
:103D7000FCF7BEF930317F1E039039701199481E4F
:103D800011900029F2DC03980028EFD1791E1298D7
:103D900008703078202108404530BF1E387006A8D2
:103DA000C01BC01D039010980078002800D001208F
:103DB000019941180298C017091803980918049826
:103DC000401A401E0490E00306D421461A9B199A1B
:103DD000049800F05FF8451910980078002803D087
:103DE0001A9A199990476D1CE00324D521461A9B15
:103DF000199A049800F04EF845191CE00098002824
:103E000007DB00990598884203DD1598405C1999F5
:103E100001E0199930201A9A904700986D1C401CB7
:103E200000900298401E0290002804D11A9A2E2079
:103E3000199990476D1C0199481E01900029DDDCFD
:103E400005E038781A9A7F1C199990476D1C0399E0
:103E5000481E03900029F4DC21461A9B199A049805
:103E6000ACE600002D0000002B0000002000000048
:103E700000000000F8B5044600251E4617468804D9
:103E800004D405E039462020B0476D1C641EF9D5E6
:103E90002846F8BDFFB50446002581B01E46C8037C
:103EA00001D5302700E02027880404D505E03846F6
:103EB0000399B0476D1C641EF9D5284605B0F0BDC6
:103EC0000A68531C0B6010707047000010B508485A
:103ED0000068FCF740FA0146012000F049FB054864
:103EE0000068FCF738FA0146022000F041FB10BDE3
:103EF000140800201808002001780A0241781143B4
:103F00000A028178C0781143090208437047000013
:103F1000F1B586B03E4906980D18E87801263D4C6B
:103F20000300FFF738FB0F091A1E222A2C2E1C6DE6
:103F30001C1C1C1C1C701C0021780020002906D0B1
:103F4000012100F017FCC2B20321002012E0002181
:103F500000F010FCC2B22670F6E700F09BFB07B041
:103F6000F0BD00220321022004E0A879E0700321C3
:103F70000022084600F012FDF1E76670EFE7A67038
:103F8000EDE72879070268790743002635E00698AF
:103F900081191F480818017A407A0902401880B236
:103FA000AC190390A0790090E0790290207A617AB0
:103FB0000002081880B204900098A41D019000F03F
:103FC000C9F8002107E0144A4B00D35C019A9342E0
:103FD00003D0491CC9B28142F5D30F4849000818E3
:103FE00041780298814204D1211D049A009800F082
:103FF00015F803983018001D86B2BE42C7D3AEE74D
:10400000FFF764FFABE7A879E97900F00DFCA6E7BC
:10401000C00B0020200800203552000870B5861F14
:10402000002401253300FFF7B6FA110A15121E27E6
:104030002E353C1212434A51585F667112000846F1
:10404000114600F0C3FA0146062009E0284670BD7B
:10405000204670BD0846114600F0B8FA0146072018
:1040600000F086FA4FE00846114600F0ADFA01462E
:10407000092000F05DFA46E00846114600F0A6FA75
:1040800001460A20ECE70846114600F09FFA014677
:104090000B20E5E70846114600F098FA01460C208F
:1040A000DEE70846114600F091FA01460D20D7E7F9
:1040B0000846114600F08AFA01461020D0E708466B
:1040C000114600F083FA01461120C9E7084611465F
:1040D00000F07CFA01461220C2E70846114600F0C3
:1040E00075FA01461320BBE70846114600F06EFA48
:1040F00001461420B4E70846114600F063FA014671
:10410000152000F0F1F90128A2D19FE708461146D9
:1041100000F05CFA01461620A2E7000013B5044B3C
:10412000012269460348FEF793F800981CBD000081
:10413000FFFF0000280A0020034610B500200246B9
:1041400005E01C78521C2018C0B292B25B1C8A4257
:10415000F7D310BD0220704790B0FDF791F8FEF73D
:104160000DFEFEF7DDFAFEF7C7FAFEF775FBFEF768
:10417000BFFBFEF7F1FBFEF725FCFEF73FFCFEF769
:1041800059FCFEF73DFBFEF793FB00F037FBFEF713
:104190001BFA012285498648FEF71AF8FEF7A3FCB0
:1041A000844800210090082380220846FEF764FC22
:1041B00019204001FCF7DAFCFEF759FCFEF7BCFDC4
:1041C000FEF79EFD7C4E002826D07CA0FFF790F9DC
:1041D00002237FA200210846FEF7F0FC3046FCF7E0
:1041E000C5FCFEF744FC00247E4D00F059FB0E9404
:1041F0000D940C940F94029403940494FF210520D1
:104200000594069407940894013100070994FEF779
:10421000CDF9002806D015E073A0FFF769F9022355
:1042200075A2D7E71420FCF7A1FC77480021009085
:10423000082380220846FEF71FFC5F48FCF796FC27
:10424000FEF715FC0121C9032846FEF7AFF9002847
:104250000BD16EA0FFF74CF971A0FFF749F90223CB
:1042600073A206210020FEF7A9FC0121890328463C
:10427000FEF79CF900280AD11420FCF777FC00F027
:10428000BBF900F0A7F9012809D0FEF7ADF901212B
:1042900049032846FEF78AF9002803D00EE0FEF70E
:1042A000C5F9F4E71420FCF761FC002000F0B0F938
:1042B00000F09CF9012809D0FEF7DAF90121090381
:1042C0002846FEF773F9002803D007E0FEF7F2F95D
:1042D000F4E71420FCF74AFC00F0AAF900F080F99A
:1042E000002806D0012807D0022815D0032809D1BC
:1042F00015E0022352A201E0022354A20021084645
:10430000FEF75CFC2C48FCF731FC0EA8FEF700FD24
:10431000002807D050A00DE0022356A2EEE70223AA
:1043200058A2EBE70CAA0DA90EA8FEF7ABFC0028DB
:1043300003D058A0FFF7DCF857E70C98FCF71FF8FC
:1043400006460F460D98FCF71AF802460B4656A093
:1043500001970096FFF7CCF80D98FCF710F80B4684
:1043600002465AA102A8FFF7D3F80C98FCF707F809
:1043700002460B4658A106A8FFF7CAF8022302AA74
:1043800019460020FEF71AFC022306AA0421002089
:10439000FEF714FC53490D98FBF75BFF0349486097
:1043A0000C988860FFF792FD1FE7000010080020BE
:1043B000A409002010000020B80B000073687433BB
:1043C0003020696E6974206661696C2E0A000000F5
:1043D000736874333020696E6974206661696C2E6D
:1043E0000000000000040050736874333020696ED0
:1043F0006974206F6B2E0A00736874333020696E05
:104400006974206F6B2E000010040020497427731C
:104410002073686F772074696D65210A00000000C1
:104420004861766520796F75722066756E210A0085
:104430004861766520796F75722066756E2100007F
:10444000534D415254204D4F444521004150204D81
:104450004F4445210000000072656164206461746E
:10446000612066726F6D20736874333020666169F5
:104470006C2E0A005769466920434F4E4E454354FF
:104480002E2E00005769466920434F4E4E45435437
:104490004544210063726320636865636B20666135
:1044A000696C2E0A0000000074656D70657261749D
:1044B000757265203D2025662C2068756D696469DC
:1044C0007479203D2025660A0000000074656D7037
:1044D0003A25302E3266000068756D693A25302E17
:1044E000326600000000204110B5104A0C4601461B
:1044F00012780020012A14D000F03CF9012100F0CC
:1045000039F9002100F036F9012100F033F9002CCF
:1045100009D0012100F02EF902460321072000F006
:104520003DFA012010BD0021F4E700002C08002016
:1045300010B50E4A0C46014612780020012A12D00E
:1045400000F018F9042100F015F9002100F012F92B
:10455000012100F00FF9214600F00CF90246032179
:10456000072000F01BFA012010BD00002C080020DD
:1045700010B5134A0C46014612780020012A1DD0BE
:1045800000F0F8F8022100F0F5F8002100F0F2F850
:10459000042100F0EFF8210E00F0ECF82102090EE2
:1045A00000F0E8F82104090E00F0E4F8E1B200F0B0
:1045B000E1F802460321072000F0F0F9012010BDC8
:1045C0002C080020007870470078704700B5FFF78E
:1045D00093FC00BD014800787047000021080020CE
:1045E0000148007870470000230800200148007847
:1045F000704700002208002010B504490020087010
:1046000002460321042000F0C9F910BD2108002052
:1046100010B50146054A0020107000F0ABF8C2B298
:104620000321052000F0BAF910BD00002208002087
:1046300010B5002203210E2000F0B0F910BD30B5F6
:10464000002808D0002906D0884202D98C1884425C
:1046500012D2002305E0002030BDCD5CC5545B1CA8
:104660009BB29342F9D330BD8B18203BDC7F83187B
:10467000203B521EDC7792B2002AF5D130BD0021DA
:10468000002806D000E0491C0278401C002AFAD11C
:104690000846704710B5002421A0FFF7F0FF82B252
:1046A0001FA1204600F058F8C4B21FA0FFF7E7FF93
:1046B00082B21DA1204600F04FF8C4B21FA0FFF740
:1046C000DEFF82B21DA1204600F046F8C4B21DA054
:1046D000FFF7D5FF82B21BA1204600F03DF8C4B21F
:1046E0001AA0FFF7CCFF82B218A1204600F034F8E0
:1046F000C4B215A0FFF7C3FF82B213A1204600F099
:104700002BF8C4B213A0FFF7BAFF82B211A1204662
:1047100000F022F8C2B20321012000F03FF910BDE1
:104720007B2270223A2200006869356D70656376DD
:10473000636E76336174667000000000222C22766E
:10474000223A2200312E302E30000000222C226D21
:10475000223A00007D00000070B50446044815466A
:104760000019801DFFF76BFF601980B270BD00005B
:10477000F60B0020024A1218401C917180B270475B
:10478000F60B002007494B688A689A4208D0064811
:10479000824201D3173888608A681078521C8A6078
:1047A0007047000020080020F60B002010B50B49D0
:1047B0000B680B490A689C1A012C0DD09A4202D949
:1047C000D31A172B08D2074B9A4202D31A46173A2C
:1047D0000A601070521C0A6010BD000028080020FA
:1047E00024080020F60B002001B5FF2301226946B2
:1047F0000148FDF72DFD08BDA40900200649054824
:104800000860064908600649002008700549FF2035
:1048100008707047DF0B00202408002028080020C3
:104820002C0800202308002010B50C46002801D0D9
:1048300007A009E00CA0FEF75BFE002C03D0012CC2
:1048400004D10EA000E012A0FEF752FE10BD000041
:1048500057494649205445535420535543434345F3
:1048600053212E0A00000000776966692074657381
:1048700074206661696C2E0A000000006D6F75641B
:104880006C65206E6F206C696E636563652E0A002F
:104890006E6F207769666920666F756E642E0A00F8
:1048A000F0B587B00024314E314D06E0FFF76AFFC6
:1048B000014628883154401C288028881F2803D2AC
:1048C00000F090F80028F1D1288807284BD33CE06D
:1048D000315D552901D0641C07E037197978AA2980
:1048E000F9D1B978002902D0A41CA4B22DE03979FD
:1048F0007A790902C91D511889B20091262901D976
:10490000E41CF2E7884224DB481E81B20590384659
:10491000FFF712FC014600982018009080192038FB
:104920000290C07F81420BD0059881B23846FFF7D4
:1049300003FC01460298C27F0EA0FEF7D9FDDFE717
:104940002046FFF7E5FA009884B22888001B072864
:10495000BEDA2888001B0204120C2A8003D0311909
:104960000248FFF76CFE07B0F0BD0000C00B00204E
:104970001C080020637263206572726F72202863C6
:1049800072633A307825582020627574206461740F
:10499000613A30782558290D0A00000070B5104D95
:1049A00055232B70AA236B70A970E870100A287128
:1049B0006A71D21D94B2601E81B22846FFF7BCFB1B
:1049C00029192039C877002C09D003E02878FFF78F
:1049D0000BFF6D1C2046641EA4B20028F6D170BDEA
:1049E000F60B0020044841688068814201D0012014
:1049F00070470020704700002008002000000000E1
:104A00000000000001020304060708090304060869
:104A10000C10182030000000000102030400000008
:104A20000000000000002F00000000070007000049
:104A3000147F147F1400242A7F2A12006264081352
:104A40002300364955225000000503000000001CD9
:104A5000224100000041221C000014083E081400FE
:104A600008083E0808000000A060000008080808C8
:104A700008000060600000002010080402003E51A1
:104A800049453E0000427F400000426151494600D6
:104A90002141454B31001814127F10002745454530
:104AA00039003C4A49493000017109050300364983
:104AB00049493600064949291E00003636000000E3
:104AC000005636000000081422410000141414148B
:104AD0001400004122140800020151090600324965
:104AE00059513E007C1211127C007F494949360021
:104AF0003E41414122007F4141221C007F494949FA
:104B000041007F09090901003E4149497A007F08B7
:104B100008087F0000417F4100002040413F010024
:104B20007F08142241007F40404040007F020C0279
:104B30007F007F0408107F003E4141413E007F0915
:104B4000090906003E4151215E007F0919294600EE
:104B500046494949310001017F0101003F40404081
:104B60003F001F2040201F003F4038403F0063149B
:104B700008146300070870080700615149454300A5
:104B8000007F41410000552A552A55000041417FD0
:104B900000000402010204004040404040000001C7
:104BA000020400002054545478007F4844443800E4
:104BB000384444442000384444487F003854545416
:104BC0001800087E0901020018A4A4A47C007F0834
:104BD0000404780000447D4000004080847D000093
:104BE0007F102844000000417F4000007C0418042E
:104BF00078007C0804047800384444443800FC24DD
:104C00002424180018242418FC007C08040408003C
:104C1000485454542000043F444020003C4040206D
:104C20007C001C2040201C003C4030403C004428BC
:104C3000102844001CA0A0A07C004464544C4414E0
:104C40001414141414000000000000000000000000
:104C50000000000000000000F8000000000000005C
:104C6000333000000000100C06100C06000000009D
:104C7000000000000040C07840C0784000043F04BD
:104C8000043F040400007088FC0830000000182075
:104C9000FF211E0000F008F000E018000000211CB9
:104CA000031E211E0000F00888700000001E212352
:104CB000241927211010160E00000000000000002B
:104CC0000000000000000000E018040200000000E6
:104CD000071820400000020418E0000000004020F7
:104CE0001807000000404080F080404000020201B0
:104CF0000F01020200000000F000000000010101AD
:104D00001F01010100000000000000000080B070E1
:104D10000000000000000000000000000000010191
:104D2000010101010100000000000000000030301E
:104D300000000000000000000080601804006018FF
:104D4000060100000000E010080810E000000F104D
:104D50002020100F00001010F8000000000020209C
:104D60003F202000000070080808887000003028EC
:104D700024222130000030088888483000001820A4
:104D80002020110E000000C02010F80000000704D1
:104D900024243F240000F80888880808000019210E
:104DA0002020110E0000E0108888180000000F116C
:104DB0002020110E0000380808C838080000000044
:104DC0003F000000000070880808887000001C2266
:104DD0002121221C0000E010080810E00000003132
:104DE0002222110F00000000C0C0000000000000DF
:104DF0003030000000000000800000000000008053
:104E00006000000000000080402010080000010247
:104E1000040810200040404040404040000404048A
:104E2000040404040000081020408000000020104A
:104E30000804020100007048080808F000000000A3
:104E40003036010000C030C828E810E000071827FD
:104E50002423140B000000C038E0000000203C2395
:104E6000020227382008F8888888700000203F2038
:104E70002020110E00C0300808080838000718204C
:104E8000202010080008F808080810E000203F2043
:104E90002020100F0008F88888E8081000203F2024
:104EA000202320180008F88888E8081000203F20F8
:104EB0000003000000C03008080838000007182070
:104EC00020221E020008F808000008F808203F21F0
:104ED0000101213F20000808F808080000002020F8
:104EE0003F2020000000000808F8080800C080806B
:104EF000807F00000008F888C028180800203F20A4
:104F0000012638200008F8080000000000203F209B
:104F1000202020300008F8F800F8F80800203F00B2
:104F20003F003F200008F830C00008F808203F206C
:104F30000007183F00E01008080810E0000F1020DC
:104F40002020100F0008F808080808F000203F2172
:104F50000101010000E01008080810E0000F18240B
:104F60002438504F0008F8888888887000203F2037
:104F700000030C3020007088080808380000382032
:104F80002121221C00180808F80808180000002039
:104F90003F2000000008F808000008F808001F2063
:104FA0002020201F000878880000C838080000076B
:104FB000380E010000F80800F80008F800033C076C
:104FC00000073C0300081868808068180820302C0F
:104FD00003032C30200838C800C83808000000201F
:104FE0003F2000000010080808C8380800203826B4
:104FF0002120201800000000FE0202020000000034
:105000007F40404000000C30C00000000000000065
:10501000010638C00000020202FE0000000040400D
:10502000407F0000000000040202020400000000B3
:1050300000000000000000000000000000808080F0
:1050400080808080800002020400000000000000D8
:105050000000000000000080808080000000192413
:105060002222223F2008F8008080000000003F112B
:105070002020110E000000008080800000000E1132
:105080002020201100000000808088F800000E1110
:105090002020103F200000808080800000001F2220
:1050A0002222221300008080F088888818002020A7
:1050B0003F202000000000808080808000006B94F2
:1050C000949493600008F8008080800000203F21C5
:1050D0000000203F20008098980000000000202061
:1050E0003F20200000000000809898000000C08051
:1050F00080807F000008F8000080808000203F242E
:10510000022D302000000808F800000000002020D8
:105110003F202000008080808080808000203F2011
:10512000003F20003F8080008080800000203F21E1
:105130000000203F200000808080800000001F20B1
:105140002020201F00808000808000000080FFA1C0
:105150002020110E000000008080808000000E11D1
:105160002020A0FF80808080008080800020203F61
:105170002120000100000080808080800000332416
:105180002424241900008080E080800000000000BA
:105190001F202000008080000000808000001F2071
:1051A0002020103F20808080000080808000010E41
:1051B000300806010080800080008080800F300C65
:1051C000030C300F000080800080808000002031C0
:1051D0002E0E312000808080000080808080818EB3
:1051E00070180601000080808080808000002130DF
:1051F0002C2221300000000000807C020200000010
:1052000000003F404000000000FF000000000000E0
:1052100000FF0000000002027C800000000040400F
:105220003F0000000000060101020204040000002B
:105230000000000000010202020000005C520008B1
:1052400000000020340800000009000898530008FE
:1052500034080020FC0700000436000832019204E4
:1052600012200A65FF015A3F010B667F7F72C90158
:10527000081212DF9F1F3F3F7EFEFEFCF8F0F1C3D5
:10528000870F1F3F8849A33169AE5A3F19CA7FB7BC
:10529000890F091719390E794729F9180BFFFEFCF8
:1052A000FCF8F1E3C7879F57EFFEF8E080011F800D
:1052B0003AFE013149091901591931A928890F0903
:1052C00017191307016BF8FC3F195A19F85C01070D
:1052D000070E3BF0F006EAF8807945B9D50933802E
:1052E00013E0806C0F3F7F0109122C09170119ACE4
:1052F000990179137AF9018AF8DAD919B9638AFC24
:1053000001590F09237F0931015AC7010C57C3E026
:10531000F06409550101402B8CFE461808FEFCFC88
:10532000F8F8F0F8010566F0E0C0803CE0F0FC7CA5
:105330000910010B61FEF0830D14043F7F7F7F296C
:10534000010266F83C040F1F8509108A01501C8079
:1053500080C0010213801A1F6EBAFC7C1A3F8F01B5
:105360004D7B08FE5C3AE0873A80891C80C0FC01D6
:10537000F9FB0352FF180F100103030307076B0922
:10538000140119A5035060600B1680E06FEB1FE756
:0853900012054AF9E0C080009B
:04000005080000C12E
:00000001FF
